:020000040800F2
:10000000000001205D0E0008AD0E0008AD0E0008D6
:10001000AD0E0008AD0E0008AD0E00080000000097
:10002000000000000000000000000000AD0E00080D
:10003000AD0E000800000000AD0E0008AD0E000877
:1000400000000000AD0E0008AD0E0008AD0E000867
:10005000AD0E0008AD0E0008E50C0008F10C00081C
:10006000AD0E0008AD0E0008AD0E00080000000047
:100070000000000000000000000000000000000080
:100080000000000000000000AD0E000800000000AD
:10009000000000000000000000000000AD0E00089D
:1000A000AD0E0008AD0E0008AD0E0008AD0E000844
:1000B000AD0E0008AD0E000800000000AD0E0008F7
:1000C000AD0E0008AD0E0008AD0E0008AD0E000824
:1000D000AD0E00080000000000000000000000005D
:1000E000AD0E0008AD0E0008AD0E000800000000C7
:1000F0000000000000000000000000000000000000
:1001000000000000AD0E000800000000AD0E000869
:1001100000000000000000000000000000000000DF
:1001200000000000000000000000000000000000CF
:1001300000000000000000000000000000000000BF
:10014000000000000000000000000000AD0E0008EC
:10015000000000000000000000000000000000009F
:10016000AD0E0008AD0E0008000000000000000009
:10017000000000000000000000000000000000007F
:1001800000000000AD0E00080000000000000000AC
:04019000AD0E0008A8
:1001940010B5054C237833B9044B13B10448AFF3BD
:1001A40000800123237010BD2C04002000000000F7
:1001B4001410000808B5034B1BB103490348AFF3FF
:1001C400008008BD00000000300400201410000866
:1001D40080B483B000AF7860084611461A460346DF
:1001E400FB700B46BB7013467B70304B1A6B7B78ED
:1001F400012101FA03F32D4913430B63BB78002B50
:1002040020D07B681A68FB785B00012101FA03F3B4
:100214001A437B681A607B681A68FB785B000133B9
:10022400012101FA03F3DB431A407B681A607B68FF
:100234005A68FB78012101FA03F3DB431A407B6817
:100244005A602CE07B681A68FB785B00012101FA94
:1002540003F3DB431A407B681A607B681A68FB78F7
:100264005B000133012101FA03F3DB431A407B688D
:100274001A607B68DA68FB785B00012101FA03F3FA
:100284001A437B68DA607B68DA68FB785B000133C9
:10029400012101FA03F3DB431A407B68DA6000BFF3
:1002A4000C37BD465DF8047B704700BF0038024040
:1002B40080B483B000AF78600B46FB701346BB700C
:1002C4007B681A68FB785B00012101FA03F3134091
:1002D400002B23D07B681A68FB785B000133012173
:1002E40001FA03F31340002B18D1BB78002B09D07B
:1002F4007B685A69FB78012101FA03F31A437B688E
:100304005A6109E07B685A69FB78012101FA03F319
:10031400DB431A407B685A61002300E0012318463E
:100324000C37BD465DF8047B704780B485B000AFE0
:1003340078600B46FB707B681A68FB785B000121D0
:1003440001FA03F31340002B0AD07B681A68FB7888
:100354005B000133012101FA03F31340002B0AD19E
:100364007B681B69FA78012101FA02F21340FB60F1
:10037400FB68DBB200E0002318461437BD465DF885
:10038400047B704780B485B000AF03460A46FB7116
:100394001346BB71674B5B6C664A43F480435364FA
:1003A400654B1A68FB79012101FA03F3624913438F
:1003B4000B60614BDA68FB79012101FA03F35E49B2
:1003C4001343CB605D4B1A68FB790633012101FAB4
:1003D40003F35A4913430B60FB79032B04D8FB79CD
:1003E400FB730023BB730AE0FB79032B07D9FB796A
:1003F400072B04D8FB79043BFB730123BB73BB7944
:10040400412B02D0422B48D08DE04D4ABB7B0233B6
:1004140052F82310FB7B9B00012202FA03F3DA4318
:100424004748BB7B0A40023340F82320444ABB7B45
:10043400023352F82310FB7B9B000133012202FAA2
:1004440003F3DA433E48BB7B0A40023340F82320DF
:100454003B4ABB7B023352F82310FB7B9B000233E5
:10046400012202FA03F3DA433548BB7B0A40023324
:1004740040F82320324ABB7B023352F82310FB7B23
:100484009B000333012202FA03F3DA432C48BB7BBB
:100494000A40023340F8232045E0294ABB7B02335B
:1004A40052F82310FB7B9B0001229A402448BB7B1B
:1004B4000A43023340F82320214ABB7B023352F81B
:1004C4002310FB7B9B000133012202FA03F3DA437E
:1004D4001B48BB7B0A40023340F82320184ABB7BED
:1004E400023352F82310FB7B9B000233012202FAF1
:1004F40003F3DA431248BB7B0A40023340F823205B
:100504000F4ABB7B023352F82310FB7B9B0003335F
:10051400012202FA03F3DA430948BB7B0A4002339F
:1005240040F8232000BF00BF1437BD465DF8047BAC
:10053400704700BF00380240003C014000E100E089
:100544000038014080B500AF42210020FFF71AFFB8
:1005540042210120FFF716FF012300220021124847
:10056400FFF736FE0123002201210F48FFF730FE7A
:100574000023012200210D48FFF72AFE0023012257
:1005840001210A48FFF724FE002301220221074823
:10059400FFF71EFE0023012203210448FFF718FE83
:1005A4000023184680BD00BF000402400000024042
:1005B40080B584B000AF0021A648FFF7B6FE03461D
:1005C400FB720021A448FFF7B0FE0346BB72012171
:1005D400A148FFF7AAFE03467B7202219E48FFF75B
:1005E400A4FE03463B7203219B48FFF79EFE03468D
:1005F400FB71FB7A002B40F08981FB79002B27D11A
:100604003B7A002B24D17B7A002B21D1BB7A002B9F
:100614001ED0002203219048FFF74AFE0022022147
:100624008D48FFF745FE002201218B48FFF740FE6D
:10063400002200218848FFF73BFE0023FB6002E014
:10064400FB680133FB60FB68844A9342F8DD5DE19B
:10065400FB79002B27D13B7A002B24D17B7A002B0A
:1006640021D0BB7A002B1ED1002203217A48FFF748
:100674001FFE002202217848FFF71AFE0022012102
:100684007548FFF715FE012200217348FFF710FE9D
:100694000023FB6002E0FB680133FB60FB686F4AE8
:1006A4009342F8DD32E1FB79002B27D13B7A002B12
:1006B40024D17B7A002B21D0BB7A002B1ED00022C0
:1006C40003216548FFF7F4FD002202216248FFF789
:1006D400EFFD012201216048FFF7EAFD002200211D
:1006E4005D48FFF7E5FD0023FB6002E0FB68013392
:1006F400FB60FB68594A9342F8DD07E1FB79002B64
:1007040027D13B7A002B24D07B7A002B21D1BB7AD2
:10071400002B1ED1002203214F48FFF7C9FD002200
:1007240002214D48FFF7C4FD012201214A48FFF789
:10073400BFFD012200214848FFF7BAFD0023FB60FA
:1007440002E0FB680133FB60FB68444A9342F8DD36
:10075400DCE0FB79002B27D13B7A002B24D07B7A79
:10076400002B21D1BB7A002B1ED0002203213A4852
:10077400FFF79EFD012202213748FFF799FD002271
:1007840001213548FFF794FD002200213248FFF78C
:100794008FFD0023FB6002E0FB680133FB60FB6814
:1007A4002E4A9342F8DDB1E0FB79002B27D13B7A46
:1007B400002B24D07B7A002B21D0BB7A002B1ED1B6
:1007C400002203212448FFF773FD0122022122485D
:1007D400FFF76EFD002201211F48FFF769FD01228A
:1007E40000211D48FFF764FD0023FB6002E0FB6865
:1007F4000133FB60FB68194A9342F8DD86E0FB791C
:10080400002B2DD13B7A002B2AD07B7A002B27D0CA
:10081400BB7A002B24D0002203210F48FFF748FDA8
:10082400012202210C48FFF743FD012201210A485D
:10083400FFF73EFD002200210748FFF739FD0023A2
:10084400FB6002E0FB680133FB60FB68034A9342F0
:10085400F8DD5BE000040240000002401FA1070035
:10086400FB79002B27D03B7A002B24D17B7A002BF9
:1008740021D1BB7A002B1ED1002203212548FFF78A
:1008840017FD012202212348FFF712FD0122012155
:100894002048FFF70DFD012200211E48FFF708FD47
:1008A4000023FB6002E0FB680133FB60FB681A4A2B
:1008B4009342F8DD2AE0FB79002B27D03B7A002B0A
:1008C40024D17B7A002B21D1BB7A002B1ED00122AC
:1008D40003211048FFF7ECFC002202210D48FFF72A
:1008E400E7FC002201210B48FFF7E2FC0022002173
:1008F4000848FFF7DDFC0023FB6002E0FB680133DE
:10090400FB60FB68044A9342F8DDFFE700BF103741
:10091400BD4680BD000002401FA1070080B584B021
:1009240000AF0121A648FFF700FD0346FB7200213A
:10093400A448FFF7FAFC0346BB720121A148FFF764
:10094400F4FC03467B7202219E48FFF7EEFC03464B
:100954003B7203219B48FFF7E8FC0346FB71FB7ADB
:10096400002B40F0B481FB79002B27D13B7A002B7C
:1009740024D17B7A002B21D1BB7A002B1ED10022FB
:1009840003219048FFF794FC002202218D48FFF7D1
:100994008FFC002201218B48FFF78AFC01220021F1
:1009A4008848FFF785FC0023FB6002E0FB68013305
:1009B400FB60FB68844A9342F8DD88E1FB79002BF5
:1009C40027D13B7A002B24D17B7A002B21D1BB7A0F
:1009D400002B1ED0002203217A48FFF769FC002275
:1009E40002217848FFF764FC012201217548FFF7D2
:1009F4005FFC002200217348FFF75AFC0023FB60D0
:100A040002E0FB680133FB60FB686F4A9342F8DD48
:100A14005DE1FB79002B27D13B7A002B24D17B7A33
:100A2400002B21D0BB7A002B1ED100220321654864
:100A3400FFF73EFC002202216248FFF739FC012245
:100A440001216048FFF734FC012200215D48FFF7D3
:100A54002FFC0023FB6002E0FB680133FB60FB68B2
:100A6400594A9342F8DD32E1FB79002B27D13B7AD6
:100A7400002B24D17B7A002B21D0BB7A002B1ED0F3
:100A8400002203214F48FFF713FC012202214D48A5
:100A9400FFF70EFC002201214A48FFF709FC00225F
:100AA40000214848FFF704FC0023FB6002E0FB68D8
:100AB4000133FB60FB68444A9342F8DD07E1FB79AC
:100AC400002B27D13B7A002B24D07B7A002B21D119
:100AD400BB7A002B1ED1002203213A48FFF7E8FB22
:100AE400012202213748FFF7E3FB002201213548A8
:100AF400FFF7DEFB012200213248FFF7D9FB002378
:100B0400FB6002E0FB680133FB60FB682E4A934202
:100B1400F8DDDCE0FB79002B27D13B7A002B24D0D5
:100B24007B7A002B21D1BB7A002B1ED0002203211B
:100B34002448FFF7BDFB012202212248FFF7B8FB3E
:100B4400012201211F48FFF7B3FB002200211D48A9
:100B5400FFF7AEFB0023FB6002E0FB680133FB60A0
:100B6400FB68194A9342F8DDB1E0FB79002B2DD1E3
:100B74003B7A002B2AD07B7A002B27D0BB7A002B20
:100B840024D1002203210F48FFF792FB0122022106
:100B94000C48FFF78DFB012201210A48FFF788FB6F
:100BA400012200210748FFF783FB0023FB6002E0DA
:100BB400FB680133FB60FB68034A9342F8DD86E07F
:100BC40000040240000002401FA10700FB79002B33
:100BD40027D13B7A002B24D07B7A002B21D0BB7AFF
:100BE400002B1ED0012203213B48FFF761FB0022AA
:100BF40002213948FFF75CFB002201213648FFF748
:100C040057FB002200213448FFF752FB0023FB600E
:100C140002E0FB680133FB60FB68304A9342F8DD75
:100C240055E0FB79002B27D03B7A002B24D17B7A2B
:100C3400002B21D1BB7A002B1ED10122032126488F
:100C4400FFF736FB002202212348FFF731FB002285
:100C540001212148FFF72CFB012200211E48FFF748
:100C640027FB0023FB6002E0FB680133FB60FB68A9
:100C74001A4A9342F8DD2AE0FB79002B27D13B7A0C
:100C8400002B24D17B7A002B21D1BB7A002B1ED1DF
:100C9400012203211048FFF70BFB002202210E481A
:100CA400FFF706FB002201210B48FFF701FB01229D
:100CB40000210948FFF7FCFA0023FB6002E0FB680F
:100CC4000133FB60FB68054A9342F8DDFFE700BF90
:100CD4001037BD4680BD00BF000002401FA10700C1
:100CE40080B500AFFFF764FC00BF80BD80B500AFE6
:100CF400FFF714FE00BF80BD80B500AF164BD3F8DC
:100D04008830154A43F47003C2F88830134B1B68CB
:100D1400124A43F001031360104B00229A600F4BF8
:100D24001B680E4A23F0847323F4803313600B4B47
:100D34000B4A5A60094B1B68084A23F4802313604A
:100D4400064B0022DA6000F00DF8034B4FF000620E
:100D54009A6000BF80BD00BF00ED00E00038024093
:100D64001030002480B483B000AF00237B600023E4
:100D74003B60354B1B68344A43F480331360324B79
:100D84001B6803F400333B607B6801337B603B6882
:100D9400002B03D17B68B3F5A04FF0D12A4B1B681D
:100DA40003F40033002B02D001233B6001E0002355
:100DB4003B603B68012B40D1234B1B6C224A43F020
:100DC40080531364214B1B68204A43F4404313604F
:100DD4001D4B1D4A9B6893601B4B1B4A9B68936089
:100DE400194B9B68184A43F480539360164B184A76
:100DF4005A60154B1B68144A43F08073136000BF9C
:100E0400114B1B6803F00073002BF9D0114B40F217
:100E140002721A600C4B9B680B4A23F00303936025
:100E2400094B9B68084A43F00203936000BF064BDA
:100E34009B6803F00C03082BF9D100BF0C37BD46A7
:100E44005DF8047B704700BF00380240007000402A
:100E540019544107003C02400D4885460D480E498F
:100E64000E4A002302E0D458C4500433C4188C4200
:100E7400F9D30B4A0B4C002301E013600432A24265
:100E8400FBD3FFF739FF00F011F8FFF75BFBFEE738
:100E940000000120000000202C0400203C10000869
:100EA4002C0400206C040020FEE7000070B50D4EF9
:100EB4000D4D761BB61006D00024013455F8043BC2
:100EC4009847A642F9D1094E094D761B00F0A0F8C7
:100ED400B61006D00024013455F8043B9847A642C6
:100EE400F9D170BD30100008301000083810000827
:100EF40030100008024B13B1024800F005B87047E7
:100F040000000000190F0008002301461A46184685
:100F140000F01EB838B50A4C0A4D641BA4100AD060
:100F240004F18043013B05EB8305013C55F804398A
:100F34009847002CF9D1BDE8384000F06FB800BFE5
:100F44003C10000838100008704700BF704700BF0D
:100F54002DE9F8432B4D0646286898460F469146DE
:100F6400FFF7F2FF284B1C68D4F84831002B3DD022
:100F74005A681F2A0DDC02F1010C16BB0232C3F8B9
:100F840004C0286843F82270FFF7E0FF0020BDE8A2
:100F9400F8831E4B7BB34FF4C870AFF30080034655
:100FA40048B3D4F848210021C0E900214FF0010CD6
:100FB400C4F848010A46C0F88811C0F88C11002E04
:100FC400DCD003EB82010124C1F88890D3F88801B6
:100FD40094402043022EC3F88801C1F80881CDD182
:100FE400D3F88C110C43C3F88C41C7E704F5A673FE
:100FF400C4F84831BCE72868FFF7A8FF4FF0FF307A
:10100400C5E700BF280400202C10000800000000E1
:10101400F8B500BFF8BC08BC9E467047F8B500BFE1
:08102400F8BC08BC9E467047B1
:04102C0000000020A0
:08103000F90E0008B9010008E7
:041038009501000816
:10103C0000000000EC02002054030020BC03002040
:10104C000000000000000000000000000000000094
:10105C000000000000000000000000000000000084
:10106C000000000000000000000000000000000074
:10107C000000000000000000000000000000000064
:10108C000000000000000000000000000000000054
:10109C000000000000000000000000000000000044
:1010AC000000000000000000000000000000000034
:1010BC000000000000000000000000000000000024
:1010CC000000000000000000000000000000000014
:1010DC000000000000000000010000000000000003
:1010EC000E33CDAB34126DE6ECDE05000B000000C8
:1010FC0000000000000000000000000000000000E4
:10110C0000000000000000000000000000000000D3
:10111C0000000000000000000000000000000000C3
:10112C0000000000000000000000000000000000B3
:0C145C0000000000000000004804002018
:0400000508000E5D84
:00000001FF
