:020000040800F2
:10000000000001203509000885090008850900085D
:10001000850900088509000885090008000000001E
:10002000000000000000000000000000850900083A
:1000300085090008000000008509000885090008FE
:1000400000000000850900088509000885090008EE
:100050008509000885090008850900088509000848
:1000600085090008850900088509000800000000CE
:100070000000000000000000000000000000000080
:1000800000000000000000008509000800000000DA
:1000900000000000000000000000000085090008CA
:1000A00085090008850900088509000885090008F8
:1000B000850900088509000800000000850900087E
:1000C00085090008850900088509000885090008D8
:1000D000850900080000000000000000000000008A
:1000E000850900088509000885090008000000004E
:1000F0000000000000000000000000000000000000
:1001000000000000850900080000000085090008C3
:1001100000000000000000000000000000000000DF
:1001200000000000000000000000000000000000CF
:1001300000000000000000000000000000000000BF
:100140000000000000000000000000008509000819
:10015000000000000000000000000000000000009F
:100160008509000885090008000000000000000063
:10017000000000000000000000000000000000007F
:1001800000000000850900080000000000000000D9
:0401900085090008D5
:1001940010B5054C237833B9044B13B10448AFF3BD
:1001A40000800123237010BD4404002000000000DF
:1001B400EC0A000808B5034B1BB103490348AFF32D
:1001C400008008BD0000000048040020EC0A00087C
:1001D40080B483B000AF7860084611461A460346DF
:1001E400FB700B46BB7013467B70304B1A6B7B78ED
:1001F400012101FA03F32D4913430B63BB78002B50
:1002040020D07B681A68FB785B00012101FA03F3B4
:100214001A437B681A607B681A68FB785B000133B9
:10022400012101FA03F3DB431A407B681A607B68FF
:100234005A68FB78012101FA03F3DB431A407B6817
:100244005A602CE07B681A68FB785B00012101FA94
:1002540003F3DB431A407B681A607B681A68FB78F7
:100264005B000133012101FA03F3DB431A407B688D
:100274001A607B68DA68FB785B00012101FA03F3FA
:100284001A437B68DA607B68DA68FB785B000133C9
:10029400012101FA03F3DB431A407B68DA6000BFF3
:1002A4000C37BD465DF8047B704700BF0038024040
:1002B40080B483B000AF78600B46FB701346BB700C
:1002C4007B681A68FB785B00012101FA03F3134091
:1002D400002B23D07B681A68FB785B000133012173
:1002E40001FA03F31340002B18D1BB78002B09D07B
:1002F4007B685A69FB78012101FA03F31A437B688E
:100304005A6109E07B685A69FB78012101FA03F319
:10031400DB431A407B685A61002300E0012318463E
:100324000C37BD465DF8047B704780B485B000AFE0
:1003340078600B46FB707B681A68FB785B000121D0
:1003440001FA03F31340002B0AD07B681A68FB7888
:100354005B000133012101FA03F31340002B0AD19E
:100364007B681B69FA78012101FA02F21340FB60F1
:10037400FB68DBB200E0002318461437BD465DF885
:10038400047B704780B582B000AF00237B600BE034
:10039400134A7B6813441978002301221148FFF79C
:1003A40017FF7B6801337B6003227B689342EFDB9A
:1003B40000233B600BE00C4A3B681344197800238C
:1003C40000220848FFF704FF3B6801333B60042226
:1003D4003B689342EFDB00BF0837BD4680BD00BFDA
:1003E40004000020000002400000002080B584B01A
:1003F40000AF0023FB604BE00023BB6011E0284A00
:10040400BB6813441978BA68FB689A4214BF012385
:100414000023DBB21A462348FFF74AFFBB680133C7
:10042400BB600322BB689342E9DB00237B6028E0C6
:100434001D4A7B6813441B7819461A48FFF775FF59
:100444000346FB70FB78002B18D100BF164A7B686B
:1004540013441B7819461348FFF767FF0346002B24
:10046400F4D012497A6813465B001344CA18FB6837
:1004740013441A780E4B1A7000F028F87B68013385
:100484007B6004227B689342D2DBFB680133FB6010
:100494000322FB689342AFDB00BF1037BD4680BD2B
:1004A400040000200000024000000020080000209A
:1004B4006004002080B400AF034B1B781846BD468F
:1004C4005DF8047B704700BF6004002080B582B0F3
:1004D40000AFFFF7EFFF0346FB70FB78092B00F238
:1004E4004D8101A252F823F01505000853050008B8
:1004F40091050008CF0500080D0600084B0600080A
:1005040089060008C7060008050700084307000815
:10051400002208219B48FFF7CBFE002209219948BD
:10052400FFF7C6FE00220A219648FFF7C1FE00220B
:100534000B219448FFF7BCFE00237B6002E07B683C
:1005440001337B607B68904A9342F8DD16E1002218
:1005540008218C48FFF7ACFE002209218948FFF7E7
:10056400A7FE00220A218748FFF7A2FE01220B21E1
:100574008448FFF79DFE00237B6002E07B68013323
:100584007B607B68804A9342F8DDF7E00022082113
:100594007C48FFF78DFE002209217A48FFF788FE88
:1005A40001220A217748FFF783FE00220B217548B8
:1005B400FFF77EFE00237B6002E07B6801337B60F3
:1005C4007B68714A9342F8DDD8E0002208216D4827
:1005D400FFF76EFE002209216A48FFF769FE012237
:1005E4000A216848FFF764FE01220B216548FFF7E2
:1005F4005FFE00237B6002E07B6801337B607B68E5
:10060400614A9342F8DDB9E0002208215D48FFF712
:100614004FFE012209215B48FFF74AFE00220A210E
:100624005848FFF745FE00220B215648FFF740FECD
:1006340000237B6002E07B6801337B607B68524A65
:100644009342F8DD9AE0002208214E48FFF730FE7D
:10065400012209214B48FFF72BFE00220A214948B9
:10066400FFF726FE01220B214648FFF721FE002357
:100674007B6002E07B6801337B607B68424A934283
:10068400F8DD7BE0002208213E48FFF711FE01223D
:1006940009213C48FFF70CFE01220A213948FFF7E3
:1006A40007FE00220B213748FFF702FE00237B6080
:1006B40002E07B6801337B607B68334A9342F8DD58
:1006C4005CE0002208212F48FFF7F2FD01220921F6
:1006D4002C48FFF7EDFD01220A212A48FFF7E8FD27
:1006E40001220B212748FFF7E3FD00237B6002E092
:1006F4007B6801337B607B68234A9342F8DD3DE0ED
:10070400012208211F48FFF7D3FD002209211D48BB
:10071400FFF7CEFD00220A211A48FFF7C9FD002287
:100724000B211848FFF7C4FD00237B6002E07B68BF
:1007340001337B607B68144A9342F8DD1EE001229A
:1007440008211048FFF7B4FD002209210D48FFF7E6
:10075400AFFD00220A210B48FFF7AAFD01220B215D
:100764000848FFF7A5FD00237B6002E07B680133A6
:100774007B607B68044A9342F8DD00BF00BF083702
:10078400BD4680BD000002401FA1070080B500AF38
:100794000023012208210D48FFF71AFD002301223E
:1007A40009210A48FFF714FD002301220A21074802
:1007B400FFF70EFD002301220B210448FFF708FD7B
:1007C400FFF7E0FDFFF712FEFCE700BF0000024068
:1007D40080B500AF164BD3F88830154A43F4700344
:1007E400C2F88830134B1B68124A43F001031360AC
:1007F400104B00229A600F4B1B680E4A23F084733F
:1008040023F4803313600B4B0B4A5A60094B1B686B
:10081400084A23F480231360064B0022DA6000F0B8
:100824000DF8034B4FF000629A6000BF80BD00BF1B
:1008340000ED00E0003802401030002480B483B0A2
:1008440000AF00237B6000233B60354B1B68344AB8
:1008540043F480331360324B1B6803F400333B6072
:100864007B6801337B603B68002B03D17B68B3F565
:10087400A04FF0D12A4B1B6803F40033002B02D0A5
:1008840001233B6001E000233B603B68012B40D126
:10089400234B1B6C224A43F080531364214B1B6887
:1008A400204A43F4404313601D4B1D4A9B689360E8
:1008B4001B4B1B4A9B689360194B9B68184A43F473
:1008C40080539360164B184A5A60154B1B68144AA0
:1008D40043F08073136000BF114B1B6803F0007377
:1008E400002BF9D0114B40F202721A600C4B9B683A
:1008F4000B4A23F003039360094B9B68084A43F0B7
:100904000203936000BF064B9B6803F00C03082BA3
:10091400F9D100BF0C37BD465DF8047B704700BFBA
:10092400003802400070004019544107003C024066
:100934000D4885460D480E490E4A002302E0D4585E
:10094400C4500433C4188C42F9D30B4A0B4C002313
:1009540001E013600432A242FBD3FFF739FF00F039
:1009640011F8FFF713FFFEE700000120000000204C
:1009740044040020140B00084404002088040020D0
:10098400FEE7000070B50D4E0D4D761BB61006D077
:100994000024013455F8043B9847A642F9D1094E86
:1009A400094D761B00F0A0F8B61006D000240134DF
:1009B40055F8043B9847A642F9D170BD080B0008CE
:1009C400080B0008100B0008080B0008024B13B1B9
:1009D400024800F005B8704700000000F109000863
:1009E400002301461A46184600F01EB838B50A4CD2
:1009F4000A4D641BA4100AD004F18043013B05EBAB
:100A04008305013C55F804399847002CF9D1BDE819
:100A1400384000F06FB800BF140B0008100B00083A
:100A2400704700BF704700BF2DE9F8432B4D0646C1
:100A3400286898460F469146FFF7F2FF284B1C683A
:100A4400D4F84831002B3DD05A681F2A0DDC02F13E
:100A5400010C16BB0232C3F804C0286843F82270A4
:100A6400FFF7E0FF0020BDE8F8831E4B7BB34FF493
:100A7400C870AFF30080034648B3D4F8482100217E
:100A8400C0E900214FF0010CC4F848010A46C0F83F
:100A94008811C0F88C11002EDCD003EB82010124F4
:100AA400C1F88890D3F8880194402043022EC3F8FB
:100AB4008801C1F80881CDD1D3F88C110C43C3F857
:100AC4008C41C7E704F5A673C4F84831BCE728682D
:100AD400FFF7A8FF4FF0FF30C5E700BF4004002038
:100AE400040B000800000000F8B500BFF8BC08BC07
:100AF4009E467047F8B500BFF8BC08BC9E467047D8
:040B040018000020B5
:080B0800D1090008B901000841
:040B10009501000843
:100B14000102030405060700010203040506070891
:100B2400092A002300000000000000000403002044
:100B34006C030020D403002000000000000000002B
:100B440000000000000000000000000000000000A1
:100B54000000000000000000000000000000000091
:100B64000000000000000000000000000000000081
:100B74000000000000000000000000000000000071
:100B84000000000000000000000000000000000061
:100B94000000000000000000000000000000000051
:100BA4000000000000000000000000000000000041
:100BB4000000000000000000000000000000000031
:100BC4000000000000000000000000000000000021
:100BD40001000000000000000E33CDAB34126DE6BE
:100BE400ECDE05000B000000000000000000000027
:100BF40000000000000000000000000000000000F1
:100C040000000000000000000000000000000000E0
:100C140000000000000000000000000000000000D0
:100C240000000000000000000000000000000000C0
:040F54006404002011
:0400000508000935B1
:00000001FF
