:020000040800F2
:1000000000000120810A0008D10A0008D10A000876
:10001000D10A0008D10A0008D10A00080000000037
:10002000000000000000000000000000D10A0008ED
:10003000D10A000800000000D10A0008D10A000817
:1000400000000000D10A0008D10A0008D10A000807
:10005000D10A0008D10A0008D10A0008D10A000814
:10006000D10A0008D10A0008D10A000800000000E7
:100070000000000000000000000000000000000080
:100080000000000000000000D10A0008000000008D
:10009000000000000000000000000000D10A00087D
:1000A000D10A0008D10A0008D10A0008D10A0008C4
:1000B000D10A0008D10A000800000000D10A000897
:1000C000D10A0008D10A0008D10A0008D10A0008A4
:1000D000D10A00080000000000000000000000003D
:1000E000D10A0008D10A0008D10A00080000000067
:1000F0000000000000000000000000000000000000
:1001000000000000D10A000800000000D10A000829
:1001100000000000000000000000000000000000DF
:1001200000000000000000000000000000000000CF
:1001300000000000000000000000000000000000BF
:10014000000000000000000000000000D10A0008CC
:10015000000000000000000000000000000000009F
:10016000D10A0008D10A00080000000000000000C9
:10017000000000000000000000000000000000007F
:1001800000000000D10A000800000000000000008C
:04019000D10A000888
:1001940010B5054C237833B9044B13B10448AFF3BD
:1001A40000800123237010BD4404002000000000DF
:1001B400380C000808B5034B1BB103490348AFF3DF
:1001C400008008BD0000000048040020380C00082E
:1001D40080B582B000AF7860084611461A460346DF
:1001E400FB700B46BB7013467B707B68404A93429E
:1001F40006D1404B1B6B3F4A43F00103136335E0C8
:100204007B683D4A934206D13A4B1B6B394A43F013
:10021400020313632AE07B68384A934206D1354BC4
:100224001B6B344A43F0040313631FE07B68344AB6
:10023400934206D12F4B1B6B2E4A43F008031363E2
:1002440014E07B682F4A934206D12A4B1B6B294A40
:1002540043F01003136309E07B682B4A934205D1F2
:10026400244B1B6B234A43F080031363BB78002B9E
:100274001CD07B681A68FB785B00012101FA03F348
:100284001A437B681A607B681A68FB785B00013349
:10029400012101FA03F3DB431A407B681A607A7880
:1002A400FB781946786800F031F81CE07B681A681E
:1002B400FB785B00012101FA03F3DB431A407B68FE
:1002C4001A607B681A68FB785B000133012101FA2C
:1002D40003F3DB431A407B681A607A78FB7819468B
:1002E400786800F04EF800BF0837BD4680BD00BFF7
:1002F40000000240003802400004024000080240AE
:10030400000C024000100240001C024080B483B084
:1003140000AF78600B46FB701346BB707B681A68AD
:10032400FB785B00012101FA03F31340002B21D079
:100334007B681A68FB785B000133012101FA03F33F
:100344001340002B16D1BB78002B02D0BB78012BB5
:100354000ED17B685A68FB78012101FA03F3DB4371
:100364001340B978FA7801FA02F21A437B685A60AA
:10037400012300E0002318460C37BD465DF8047BDA
:10038400704780B483B000AF78600B46FB701346AF
:10039400BB707B681A68FB785B00012101FA03F3E8
:1003A4001340002B2CD17B681A68FB785B00013367
:1003B400012101FA03F31340002B21D1BB78002B58
:1003C40005D0BB78012B02D0BB78022B16D17B68F9
:1003D400DA68FB785B0001219940FB785B0001330C
:1003E400012000FA03F30B43DB431340B978FA7896
:1003F400520001FA02F21A437B68DA60012300E03A
:10040400002318460C37BD465DF8047B704780B462
:1004140083B000AF78600B46FB701346BB707B68FB
:100424001A68FB785B00012101FA03F31340002BE7
:1004340018D0BB78002B09D07B685A69FB7801215E
:1004440001FA03F31A437B685A6109E07B685A692D
:10045400FB78012101FA03F3DB431A407B685A61FC
:10046400012300E0002318460C37BD465DF8047BE9
:10047400704780B483B000AF78600B46FB707B6834
:100484001A68FB785B00012101FA03F31340002B87
:1004940017D17B681A68FB785B000133012101FAEC
:1004A40003F31340002B0CD17B681B69FA780121FC
:1004B40001FA02F21340002B01D0012302E00023D1
:1004C40000E0FF2318460C37BD465DF8047B7047F7
:1004D40080B582B000AF00237B600BE0134A7B68D9
:1004E40013441978002301221148FFF771FE7B6839
:1004F40001337B6003227B689342EFDB00233B6084
:100504000BE00C4A3B681344197800230022084886
:10051400FFF75EFE3B6801333B6004223B68934275
:10052400EFDB00BF0837BD4680BD00BF04000020DC
:10053400000002400000002080B584B000AF00231A
:10054400FB604BE00023BB6011E0284ABB68134406
:100554001978BA68FB689A4214BF01230023DBB2FE
:100564001A462348FFF753FFBB680133BB600322DD
:10057400BB689342E9DB00237B6028E01D4A7B686B
:1005840013441B7819461A48FFF773FF0346FB70A0
:10059400FB78002B18D100BF164A7B6813441B78E4
:1005A40019461348FFF765FF0346002BF4D01249A0
:1005B4007A6813465B001344CA18FB6813441A781C
:1005C4000E4B1A7000F028F87B6801337B6004221C
:1005D4007B689342D2DBFB680133FB600322FB6838
:1005E4009342AFDB00BF1037BD4680BD040000203E
:1005F40000000240000000200800002060040020E9
:1006040080B400AF034B1B781846BD465DF8047BED
:10061400704700BF6004002080B582B000AFFFF7D0
:10062400EFFF0346FB70FB78092B00F24D8101A21A
:1006340052F823F0610600089F060008DD06000852
:100644001B0700085907000897070008D50700088A
:1006540013080008510800088F0800080022082128
:100664009B48FFF7D4FE002209219948FFF7CFFEEB
:1006740000220A219648FFF7CAFE00220B21944863
:10068400FFF7C5FE00237B6002E07B6801337B60DB
:100694007B68904A9342F8DD16E1002208218C48D9
:1006A400FFF7B5FE002209218948FFF7B0FE0022BA
:1006B4000A218748FFF7ABFE01220B218448FFF78C
:1006C400A6FE00237B6002E07B6801337B607B68CD
:1006D400804A9342F8DDF7E0002208217C48FFF7C6
:1006E40096FE002209217A48FFF791FE01220A2191
:1006F4007748FFF78CFE00220B217548FFF787FE31
:1007040000237B6002E07B6801337B607B68714A75
:100714009342F8DDD8E0002208216D48FFF777FE08
:10072400002209216A48FFF772FE01220A21684863
:10073400FFF76DFE01220B216548FFF768FE0023D9
:100744007B6002E07B6801337B607B68614A934293
:10075400F8DDB9E0002208215D48FFF758FE0122C8
:1007640009215B48FFF753FE00220A215848FFF78E
:100774004EFE00220B215648FFF749FE00237B6002
:1007840002E07B6801337B607B68524A9342F8DD68
:100794009AE0002208214E48FFF739FE0122092180
:1007A4004B48FFF734FE00220A214948FFF72FFE89
:1007B40001220B214648FFF72AFE00237B6002E05A
:1007C4007B6801337B607B68424A9342F8DD7BE0BF
:1007D400002208213E48FFF71AFE012209213C4865
:1007E400FFF715FE01220A213948FFF710FE002207
:1007F4000B213748FFF70BFE00237B6002E07B6888
:1008040001337B607B68334A9342F8DD5CE000226D
:1008140008212F48FFF7FBFD012209212C48FFF78F
:10082400F6FD01220A212A48FFF7F1FD01220B21DE
:100834002748FFF7ECFD00237B6002E07B6801336F
:100844007B607B68234A9342F8DD3DE00122082166
:100854001F48FFF7DCFD002209211D48FFF7D7FDE3
:1008640000220A211A48FFF7D2FD00220B21184862
:10087400FFF7CDFD00237B6002E07B6801337B60E2
:100884007B68144A9342F8DD1EE0012208211048D7
:10089400FFF7BDFD002209210D48FFF7B8FD002236
:1008A4000A210B48FFF7B3FD01220B210848FFF78B
:1008B400AEFD00237B6002E07B6801337B607B68D4
:1008C400044A9342F8DD00BF00BF0837BD4680BD2F
:1008D400000002401FA1070080B500AF00230122E1
:1008E40008210D48FFF774FC0023012209210A485E
:1008F400FFF76EFC002301220A210748FFF768FC7A
:10090400002301220B210448FFF762FCFFF7E0FDFE
:10091400FFF712FEFCE700BF0000024080B500AF05
:10092400164BD3F88830154A43F47003C2F8883064
:10093400134B1B68124A43F001031360104B00224F
:100944009A600F4B1B680E4A23F0847323F48033A0
:1009540013600B4B0B4A5A60094B1B68084A23F47B
:1009640080231360064B0022DA6000F00DF8034B7D
:100974004FF000629A6000BF80BD00BF00ED00E050
:10098400003802401030002480B483B000AF00234C
:100994007B6000233B60354B1B68344A43F480334F
:1009A4001360324B1B6803F400333B607B680133F4
:1009B4007B603B68002B03D17B68B3F5A04FF0D17B
:1009C4002A4B1B6803F40033002B02D001233B6045
:1009D40001E000233B603B68012B40D1234B1B6C9F
:1009E400224A43F080531364214B1B68204A43F48A
:1009F400404313601D4B1D4A9B6893601B4B1B4A6D
:100A04009B689360194B9B68184A43F48053936026
:100A1400164B184A5A60154B1B68144A43F08073EE
:100A2400136000BF114B1B6803F00073002BF9D057
:100A3400114B40F202721A600C4B9B680B4A23F074
:100A440003039360094B9B68084A43F002039360D5
:100A540000BF064B9B6803F00C03082BF9D100BFC1
:100A64000C37BD465DF8047B704700BF0038024078
:100A74000070004019544107003C02400D4885466F
:100A84000D480E490E4A002302E0D458C4500433E2
:100A9400C4188C42F9D30B4A0B4C002301E01360B9
:100AA4000432A242FBD3FFF739FF00F011F8FFF73D
:100AB40013FFFEE700000120000000204404002092
:100AC400600C00084404002088040020FEE70000B5
:100AD40070B50D4E0D4D761BB61006D000240134B2
:100AE40055F8043B9847A642F9D1094E094D761BA7
:100AF40000F0A0F8B61006D00024013455F8043BE9
:100B04009847A642F9D170BD540C0008540C000853
:100B14005C0C0008540C0008024B13B1024800F0AE
:100B240005B87047000000003D0B00080023014693
:100B34001A46184600F01EB838B50A4C0A4D641B14
:100B4400A4100AD004F18043013B05EB8305013C6A
:100B540055F804399847002CF9D1BDE8384000F025
:100B64006FB800BF600C00085C0C0008704700BF41
:100B7400704700BF2DE9F8432B4D06462868984678
:100B84000F469146FFF7F2FF284B1C68D4F8483112
:100B9400002B3DD05A681F2A0DDC02F1010C16BB54
:100BA4000232C3F804C0286843F82270FFF7E0FF5C
:100BB4000020BDE8F8831E4B7BB34FF4C870AFF33D
:100BC4000080034648B3D4F848210021C0E900213D
:100BD4004FF0010CC4F848010A46C0F88811C0F867
:100BE4008C11002EDCD003EB82010124C1F8889023
:100BF400D3F8880194402043022EC3F88801C1F839
:100C04000881CDD1D3F88C110C43C3F88C41C7E7CC
:100C140004F5A673C4F84831BCE72868FFF7A8FFB9
:100C24004FF0FF30C5E700BF40040020500C00081F
:100C340000000000F8B500BFF8BC08BC9E46704731
:0C0C4400F8B500BFF8BC08BC9E46704725
:040C50001800002068
:080C54001D0B0008B9010008A6
:040C5C0095010008F6
:100C60000102030405060700010203040506070844
:100C7000092A0023000000000000000004030020F7
:100C80006C030020D40300200000000000000000DE
:100C90000000000000000000000000000000000054
:100CA0000000000000000000000000000000000044
:100CB0000000000000000000000000000000000034
:100CC0000000000000000000000000000000000024
:100CD0000000000000000000000000000000000014
:100CE0000000000000000000000000000000000004
:100CF00000000000000000000000000000000000F4
:100D000000000000000000000000000000000000E3
:100D100000000000000000000000000000000000D3
:100D200001000000000000000E33CDAB34126DE670
:100D3000ECDE05000B0000000000000000000000D9
:100D400000000000000000000000000000000000A3
:100D50000000000000000000000000000000000093
:100D60000000000000000000000000000000000083
:100D70000000000000000000000000000000000073
:0410A00064040020C4
:0400000508000A8164
:00000001FF
